:1000000000308A0070280000FF00030E8301A10069
:100010000A08A0008A010408A2007708A300780853
:10002000A4007908A5007A08A600831383128B1E0A
:100030001B280B192C28220884002308F700240809
:10004000F8002508F9002608FA0020088A00210E89
:100050008300FF0E7F0E09008A110A122F282B1130
:100060002B0883168700831207152914943081000A
:100070000B118A110A121B28FB308316870083128A
:10008000AB0083160108C0390138810083128B163A
:10009000C0308B048A110A1287280330AD02031C7A
:1000A0005B282D3084008313000803195B2859282E
:1000B0005928800B582808002C308400831300082E
:1000C00003196F280630F800F701F70B6528F80BC5
:1000D00064287B30F700F70B6B28800B6228080040
:1000E00003081F398300FF30AB008316031709088C
:1000F000C039890003131F129F12003003178800B4
:100100008312870188018901831303133C28AA0104
:100110002A0F8B289F28291C9B280230AC00F9301D
:10012000AD004D20AC0B8F282B112B0883168700B8
:10013000831207112910291C9B28AA0A8828AA01C2
:100140002A0FA328BA28291CB6280130AC005C204D
:100150000230AC00F930AD004D20AC0BAA282B11B9
:100160002B0883168700831207112910291CB62833
:10017000AA0AA028AA012A0FBE28D528291CD128FE
:100180000230AC005C200230AC00F930AD004D20F4
:10019000AC0BC5282B112B0883168700831207117F
:0E01A0002910291CD128AA0ABB288728630031
:04400E00E22FFF3F5F
:00000001FF
;PIC16F887
;CRC=5564  CREATED="24-feb.-22 15:13"
