:1000000004308A00C82C0000FF00030E8301A10009
:100010000A08A0008A010408A2007708A300780853
:10002000A4007908A5007A08A600831383128C30F7
:100030008400001C1D280C182E2822088400230888
:10004000F7002408F8002508F9002608FA0020081F
:100050008A00210E8300FF0E7F0E09008A110A120A
:10006000512857080739F700570CF800F80CF80C1E
:100070001F30F80578085907840083135A1883172E
:10008000F801F80AF70A4528F80DF70B4428D808B4
:1000900003194D28780880045028F809780880054D
:1000A0000800A80A2808033C031CA80190010310BB
:1000B000280D293E84008313840A0008D800840395
:1000C0000008D7008E0158088F0057088E000000E6
:1000D0003130280784008313000B7D283508D700B2
:1000E0000130D800DA01D90131203508D700D80114
:1000F000DA018030D90031208A283508D700D801AC
:10010000DA01D90131203508D700D801DA01803071
:10011000D9003120953090000C108A110A121D2848
:10012000A8018E018F018E01000083160C14C030CF
:1001300083128B043908B6003808B500A7018B1B61
:10014000A7178B133508D7000130D800DA01D90181
:100150003120A71B8B17A7018B1BA7178B13350803
:10016000D700D801DA018030D9003120A71B8B17C6
:10017000953090008A110A12F62C393084008313CE
:1001800000080319D0280630F800F701F70BC6283D
:10019000F80BC5287B30F700F70BCC28800BC32861
:1001A0000800450803194129CD00490803194129D0
:1001B000CD070318E2287F30CD02031C4129031923
:1001C0004129E6288130CD07031841294D08F70061
:1001D000F801F901FA014608D100D1174708D0000B
:1001E0004808CF001830CD00CE014F1C0F294C0815
:1001F000FA07031C0129F90A031D0129F80A03194A
:10020000CE174B08F907031C0829F80A0319CE1763
:100210004A08C700C7174708F8070318CE17CE0DBE
:10022000F80CF90CFA0CD10CD00CCF0C0310CD0B40
:10023000F4280130F70703184129F81B2629D10DAE
:10024000FA0DF90DF80DF70303194129D11F3729CC
:10025000FA0A031D3729F90A031D3729F80A031D75
:100260003729F80CF90CFA0CF70A0319412946084A
:10027000CE004A08CE06CE1F3F29F8174529F813AD
:100280004529F701F801F901FA0108004608CD00F7
:100290004A08CD06CD1F512903110310C61B0314B4
:1002A00084294608CD004908CE004508CE0203192E
:1002B0005F29CD1F84290308013A830084294A0855
:1002C000CE004608CE0203196B29CD1F84290308EE
:1002D000013A830084294B08CE004708CE02031957
:1002E0007729CD1F84290308013A830084294C080B
:1002F000CE004808CE0203198329CD1F84290308A4
:10030000013A8300842903100800490803194A2A86
:10031000D5004D0803194A2AD502031C94297F30C1
:10032000D50703184A2A9A298130D502031C4A2A84
:1003300003194A2A5508F700F801F901FA01D40116
:100340004A08D300D3174B08D2004C08D10019300B
:10035000D5005008D1020318BD290130D20203187C
:10036000BD29D3020318BD29D4020318BD29D40A1C
:10037000D30AD20A5008D107EF294F08D202031836
:10038000D8290130D3020318D829D4020318D82958
:10039000D40AD30A4F08D2075008D107031CEF290B
:1003A000D20A031DEF29D30A031DEF29D40AEF292E
:1003B0004E088038D3020318EE290130D402031806
:1003C000EE29D40A4E088038D3074F08D207031C01
:1003D000CC29D30A031DCC29D40ACC297A14D50BF5
:1003E000F229FD290310D10DD20DD30DD40D031028
:1003F000FA0DF90DF80DD60DA929561C052A031082
:10040000F80CF90CFA0CD60C082AF70303194A2A3F
:10041000D61B312A0310D10DD20DD30DD40D5008A7
:10042000D10203181D2A0130D20203181D2AD3025B
:1004300003181D2AD402031C402A4F08D2020318B5
:10044000282A0130D3020318282AD402031C402A88
:100450004E088038D3020318312A0130D402031C1D
:10046000402AFA0A031D402AF90A031D402AF80A05
:10047000031D402AF70A03194A2AF80CF90CFA0C52
:100480004A08D5004E08D506D51F482AF8174E2A27
:10049000F8134E2AF701F801F901FA01080080303B
:1004A0008318CA06CF01D0014608CE004A08CE06FE
:1004B000450803193F2BCD00F70049080319482BC5
:1004C000CD020319E42A031CA22A4A08D300D31739
:1004D0004B08D2004C08D100D0010310D30CD20C31
:1004E000D10CD00CCD0B6C2ACE1F792A4F145C2B6B
:1004F0004F104D104F16483084008313712B4F124C
:10050000CE1B8C2A4D1C972AD30CD20CD10CD00CAC
:10051000F70A0319572B972AD31B9A2A0310D00DD9
:10052000D10DD20DD30DF7030319572B8C2A4F177A
:10053000042B4F134608CE00CE1FA02AD317502BF2
:10054000D313502B4908CD00F7004508CD024608CB
:10055000D300D3174708D2004808D100D0010310B8
:10056000D30CD20CD10CD00CCD0BAE2ACE1FBB2A93
:10057000CF145C2BCF104D10CF164C30840083135A
:10058000712BCF12CE1BCE2A4D1CD92AD30CD20CE4
:10059000D10CD00CF70A0319572BD92AD31BDC2A0C
:1005A0000310D00DD10DD20DD30DF7030319572B26
:1005B000CE2ACF17042BCF134A08CE00CE1FE22A33
:1005C000D317502BD313502B4A08D300D3174B0803
:1005D000D2004C08D100CE1FF12AD3134F155C2B4B
:1005E0004F11D0014D10483084008313712BCE1B66
:1005F0001A2B4608CE004D1C042BD30CD20CD10C68
:10060000D00CF70A0319572BD01F152BD10A031D45
:10061000152BD20A031D152BD30A031D152BD30C42
:10062000D20CD10CF70A0319572B4F1B992ACF1B59
:10063000DB2A392B8030D306D31F222B5C2B4A08B0
:10064000CE002F2B4608CE00D308031D2F2BD20837
:10065000031D2F2BD108031D2F2BF701502BD31B6C
:10066000392B0310D00DD10DD20DD30DF70B2F2B3D
:10067000572BCE1F3D2BD317502BD313502B49088C
:10068000F7004A08D3004B08D2004C08D100502B89
:100690004508F7004608D3004708D2004808D100B3
:1006A0005308F8005208F9005108FA008F2BF7019F
:1006B000F801F901FA018F2BD001D109D209D30930
:1006C000D009D00A031D6A2BD10A031D6A2BD20A56
:1006D0000319D30A4F18782ACF18BA2A4F19F02ACB
:1006E0001F2B0008D107031C7B2BD20A031D7B2B79
:1006F000D30A03194D1484030008D207031C832B6B
:10070000D30A03194D1484030008801F803AD307CD
:1007100003184D144F1A7F2ACF1AC12AF72A08004E
:100720008E30F7004508F7024608F9004708F80040
:10073000F917F7080319A72B0310F908031DA32BBA
:10074000F8080319A72BF90CF80CF70B9C2BC61F04
:10075000AE2BF809F909F80A0319F90A0800380854
:10076000B43C0318B52BB430B800BE013808BD0046
:100770008E30F7003E08F8003D08F900FA01F8084D
:10078000031DCC2B7908F800F9010830F702F808AE
:10079000031DCC2BF701D42B0310F81BD32BF90D21
:1007A000F80DF703CC2BF8132430C8006030C700D5
:1007B0005630C6006E30C5007A08CC007908CB00F0
:1007C0007808CA007708C900D1207A08BC007908E7
:1007D000BB007808BA007708B9003C08C0003B08A5
:1007E000BF003A08BE003908BD009930C800BB30D0
:1007F000C7001630C6007630C5004008CC003F0860
:10080000CB003E08CA003D08C9004621031C102C3D
:100810009930C000BB30BF001630BE007630BD003E
:100820004008C8003F08C7003E08C6003D08C50094
:10083000CC01CB01CA01C9014621031C232CC001F4
:10084000BF01BE01BD018030C8009630C70018301E
:10085000C6009730C5004008CC003F08CB003E08DA
:10086000CA003D08C900D1207A08C8007908C7002D
:100870007808C6007708C5007A08CC007908CB0054
:100880007808CA007708C900D001CF01CE018230B4
:10089000CD0085218314C801FF30C7007F30C6001A
:1008A0008E30C5007A08CC007908CB007808CA00E1
:1008B0007708C9004F227A08C8007908C70078086D
:1008C000C6007708C50090237908C2007808C100E7
:1008D00083149930C800BB30C7001630C60076308C
:1008E000C5004008CC003F08CB003E08CA003D08C8
:1008F000C9004F228030C8009630C7001830C600AB
:100900009730C5007A08CC007908CB007808CA0077
:100910007708C900D1207A08C8007908C70078088C
:10092000C6007708C5007A08CC007908CB007808A3
:10093000CA007708C900D001CF01CE018230CD00B6
:1009400085218314C801FF30C7007F30C6008E3078
:10095000C5007A08CC007908CB007808CA0077086F
:10096000C9004F227A08C8007908C7007808C60075
:100970007708C50090237908C4007808C3004208AE
:10098000AC004108AB004408AE004308AD000800CD
:1009900003081F398300A801FF30B600B500B70077
:1009A00083161F149F141F159F1107309C0083137B
:1009B00017308312A900FC30AA00FF30AB00AC0056
:1009C0008930AD00E930AE00AF30AF003C30B00050
:1009D0000130B100B200B301B401FB3083168700CF
:1009E0008312B700B9013A30B80090280430B8003B
:1009F000FA30B900BD20B80BF82CB801AF23043091
:100A0000B800FA30B900BD20B80B012D2D30B80068
:100A1000AF230430B800FA30B900BD20B80B0B2D5D
:100A20005A30B800AF230430B800FA30B900BD2006
:100A3000B80B152D8730B800AF230430B800FA305A
:100A4000B900BD20B80B1F2DB430B800AF23F62C71
:020A5000630041
:02400E00723FFF
:00000001FF
;PIC16F877A
;CRC=2C73  CREATED="01-sep.-23 14:29"
