:1000000000308A0070280000FF00030E8301A10069
:100010000A08A0008A010408A2007708A300780853
:10002000A4007908A5007A08A600831383128B1E0A
:100030001B280B192C28220884002308F700240809
:10004000F8002508F9002608FA0020088A00210E89
:100050008300FF0E7F0E09008A110A122F282B1130
:100060002B0883168700831207152914943081000A
:100070000B118A110A121B28FB308316870083128A
:10008000AB0083160108C0390138810083128B163A
:10009000C0308B048A110A127F280330AD02031C82
:1000A0005B282D3084008313000803195B2859282E
:1000B0005928800B582808002C308400831300082E
:1000C00003196F280630F800F701F70B6528F80BC5
:1000D00064287B30F700F70B6B28800B6228080040
:1000E00003081F398300FF30AB0083161F149F14D1
:1000F0001F159F1107309C00831383123C28AA010F
:100100002A0F83289728291C93280230AC00F93045
:10011000AD004D20AC0B87282B112B0883168700D0
:10012000831207112910291C9328AA0A8028AA01E2
:100130002A0F9B28B228291CAE280130AC005C2075
:100140000230AC00F930AD004D20AC0BA2282B11D1
:100150002B0883168700831207112910291CAE284B
:10016000AA0A9828AA012A0FB628CD28291CC9282E
:100170000230AC005C200230AC00F930AD004D2004
:10018000AC0BBD282B112B08831687008312071197
:0E0190002910291CC928AA0AB3287F28630059
:02400E00723FFF
:00000001FF
;PIC16F877A
;CRC=698A  CREATED="24-feb.-22 15:13"
